:020000040000FA
:0600000095EFFEF0120076
:060008005CEFFEF01200A7
:0600180050EFFEF01200A3
:020000040001F9
:02FC0000000002
:0EFC0200000EF66EFC0EF76E010EF86E0F018E
:10FC10000900F550056F0900F550066F03E105670F
:10FC200001D03DD00900F550006F0900F550016F7B
:10FC30000900F550026F09000900F550E96E09004E
:10FC4000F550EA6E090009000900F550036F09003C
:10FC5000F550046F09000900F6CF07FFF7CF08FF42
:10FC6000F8CF09FF00CFF6FF01CFF7FF02CFF8FF73
:10FC70000F01035302E1045307E00900F550EE6E53
:10FC80000307F8E20407F9D707CFF6FF08CFF7FF1D
:10FC900009CFF8FF0F010507000E065BBFD7120062
:10FCA000D8CFE4FFE0CFE4FFE46E22D8E550E5CF03
:10FCB000E0FFE5CFD8FF10001BD811000FD88F88C8
:10FCC0008A8C8150800B02E08A9A01D08A8A815006
:10FCD000800B02E08A88F5D78A98F3D79398939A95
:10FCE000939C989894948B94400E9B6EF19E120076
:0EFCF000DACFE4FFE652E552E5CFDAFF12006C
:02FCFE00800E76
:10FD0000F36E00EE00F00E0E07D8600EF36E0FEEED
:10FD100000F00F0E01D81200EA6002D0EE6AFCD7A4
:0AFD2000F350E9601200EE6AFCD710
:06FD2A001DEE00F02DEEBD
:10FD300000F0F86A019C01ECFEF0A3ECFEF05EEC32
:06FD4000FEF0FBD71200EB
:02FD46001200A9
:01FFF800A068
:01FFF900F017
:01FFFA00C541
:01FFFD00F310
:00000001FF
